:020000040000FA
:1000000002002700000080FB120051B9000302002B
:100010001175827E7583007400120033758203753A
:100020008300740012003375D0007581BF759F0086
:10003000020008C09FF59FE473D09F22D083D08236
:10004000C09FE493C0E0740193C0E0740293F59FF5
:100050002279012212003CE1000012003C2A01003A
:1000600012003C33010012003C3D010012003C42F2
:10007000010012003C4B010012003C5001007E00C8
:100080007F008E088E0912006C7A027900120054EB
:100090007A407B0612005A8003120072120060C37D
:1000A000EA9401EB9400A2D265D0334029EE2401FA
:1000B0000EEF3400FFC3EE9465EF9400A2D265D03A
:1000C0003340107E007F00E508F4F8E509F4F98874
:1000D000088909120066E508450970BD120078809C
:1000E000BBE9600B14600D14600F14601180128561
:1000F000E4E4800D43E404800843E408800343E41F
:100100000CEA600B14600D14600F146011801285EE
:10011000E4E4800D43E401800843E402800343E407
:100120000343AF2043AF01020039EBF5DBEAF5DA18
:10013000020039A2C1E433FA7B00020039C2C102D5
:10014000003953F4FE43FE01020039C29002003927
:05015000D2900200390D
:0400000500000027D0
:00000001FF
